{
  "_format": "hh-sol-artifact-1",
  "contractName": "RWAAssetFactory",
  "sourceName": "contracts/RWAAssetFactory.sol",
  "abi": [
    {
      "inputs": [],
      "name": "AssetAlreadyExists",
      "type": "error"
    },
    {
      "inputs": [],
      "name": "AssetNotFound",
      "type": "error"
    },
    {
      "inputs": [],
      "name": "InvalidParameters",
      "type": "error"
    },
    {
      "anonymous": false,
      "inputs": [
        {
          "indexed": true,
          "internalType": "address",
          "name": "asset",
          "type": "address"
        },
        {
          "indexed": true,
          "internalType": "address",
          "name": "subscriber",
          "type": "address"
        },
        {
          "indexed": false,
          "internalType": "uint256",
          "name": "shares",
          "type": "uint256"
        }
      ],
      "name": "AssetSubscribed",
      "type": "event"
    },
    {
      "anonymous": false,
      "inputs": [
        {
          "indexed": true,
          "internalType": "string",
          "name": "assetName",
          "type": "string"
        },
        {
          "indexed": true,
          "internalType": "address",
          "name": "assetAddress",
          "type": "address"
        },
        {
          "indexed": false,
          "internalType": "uint256",
          "name": "totalSupply",
          "type": "uint256"
        },
        {
          "indexed": false,
          "internalType": "uint256",
          "name": "pricePerShare",
          "type": "uint256"
        }
      ],
      "name": "RWAAssetCreated",
      "type": "event"
    },
    {
      "inputs": [
        {
          "internalType": "uint256",
          "name": "",
          "type": "uint256"
        }
      ],
      "name": "assetNames",
      "outputs": [
        {
          "internalType": "string",
          "name": "",
          "type": "string"
        }
      ],
      "stateMutability": "view",
      "type": "function"
    },
    {
      "inputs": [
        {
          "internalType": "address",
          "name": "assetAddress",
          "type": "address"
        }
      ],
      "name": "assetToName",
      "outputs": [
        {
          "internalType": "string",
          "name": "assetName",
          "type": "string"
        }
      ],
      "stateMutability": "view",
      "type": "function"
    },
    {
      "inputs": [
        {
          "internalType": "string",
          "name": "assetName",
          "type": "string"
        },
        {
          "internalType": "string",
          "name": "assetDescription",
          "type": "string"
        },
        {
          "internalType": "uint256",
          "name": "totalSupply",
          "type": "uint256"
        },
        {
          "internalType": "uint256",
          "name": "pricePerShare",
          "type": "uint256"
        },
        {
          "internalType": "string",
          "name": "assetType",
          "type": "string"
        }
      ],
      "name": "createRWAAsset",
      "outputs": [
        {
          "internalType": "address",
          "name": "",
          "type": "address"
        }
      ],
      "stateMutability": "nonpayable",
      "type": "function"
    },
    {
      "inputs": [],
      "name": "getAllAssetNames",
      "outputs": [
        {
          "internalType": "string[]",
          "name": "",
          "type": "string[]"
        }
      ],
      "stateMutability": "view",
      "type": "function"
    },
    {
      "inputs": [],
      "name": "getAssetCount",
      "outputs": [
        {
          "internalType": "uint256",
          "name": "",
          "type": "uint256"
        }
      ],
      "stateMutability": "view",
      "type": "function"
    },
    {
      "inputs": [
        {
          "internalType": "string",
          "name": "assetName",
          "type": "string"
        }
      ],
      "name": "getAssetInfo",
      "outputs": [
        {
          "internalType": "string",
          "name": "",
          "type": "string"
        },
        {
          "internalType": "string",
          "name": "",
          "type": "string"
        },
        {
          "internalType": "uint256",
          "name": "",
          "type": "uint256"
        },
        {
          "internalType": "uint256",
          "name": "",
          "type": "uint256"
        },
        {
          "internalType": "string",
          "name": "",
          "type": "string"
        },
        {
          "internalType": "address",
          "name": "",
          "type": "address"
        }
      ],
      "stateMutability": "view",
      "type": "function"
    },
    {
      "inputs": [
        {
          "internalType": "string",
          "name": "assetName",
          "type": "string"
        }
      ],
      "name": "getRWAAsset",
      "outputs": [
        {
          "internalType": "address",
          "name": "",
          "type": "address"
        }
      ],
      "stateMutability": "view",
      "type": "function"
    },
    {
      "inputs": [],
      "name": "protocolId",
      "outputs": [
        {
          "internalType": "uint256",
          "name": "",
          "type": "uint256"
        }
      ],
      "stateMutability": "pure",
      "type": "function"
    },
    {
      "inputs": [
        {
          "internalType": "string",
          "name": "assetName",
          "type": "string"
        }
      ],
      "name": "rwaAssets",
      "outputs": [
        {
          "internalType": "address",
          "name": "assetAddress",
          "type": "address"
        }
      ],
      "stateMutability": "view",
      "type": "function"
    },
    {
      "inputs": [
        {
          "internalType": "string",
          "name": "assetName",
          "type": "string"
        },
        {
          "internalType": "address",
          "name": "subscriber",
          "type": "address"
        },
        {
          "internalType": "uint64",
          "name": "shares",
          "type": "uint64"
        }
      ],
      "name": "subscribeToAsset",
      "outputs": [],
      "stateMutability": "nonpayable",
      "type": "function"
    },
    {
      "inputs": [
        {
          "internalType": "string",
          "name": "assetName",
          "type": "string"
        },
        {
          "internalType": "address",
          "name": "subscriber",
          "type": "address"
        },
        {
          "internalType": "externalEuint64",
          "name": "encryptedShares",
          "type": "bytes32"
        },
        {
          "internalType": "bytes",
          "name": "inputProof",
          "type": "bytes"
        }
      ],
      "name": "subscribeToAssetEncrypted",
      "outputs": [],
      "stateMutability": "nonpayable",
      "type": "function"
    }
  ],
  "bytecode": "0x608060405234610155576000606061001561015a565b828152826020820152826040820152015261002e61015a565b60607350157cffd6bbfa2dece204a89ec419c23ef5755d9182815273cd3ab3bd6bcc0c0bf3e27912a92043e817b1cf6980602083015273a02cda4ca3a71d7c46997716f4283aa851c2881291826040820152731364cbbf2cdf5032c47d8226a6f6fbd2afcdacac938491015260018060a01b0319937f9e7b61f58c47dc699ac88507c4f5bb9f121c03808c5676a8078fe583e464970090858254161790557f9e7b61f58c47dc699ac88507c4f5bb9f121c03808c5676a8078fe583e464970190848254161790557f9e7b61f58c47dc699ac88507c4f5bb9f121c03808c5676a8078fe583e464970290838254161790557f9e7b61f58c47dc699ac88507c4f5bb9f121c03808c5676a8078fe583e464970391825416179055604051611e9390816101908239f35b600080fd5b60405190608082016001600160401b0381118382101761017957604052565b634e487b7160e01b600052604160045260246000fdfe604060808152600490813610156200001657600080fd5b600091823560e01c806316107a33146200098f5780631b2d95ab14620008175780631d27f8e814620007cf578063304a131c14620007635780637c55a5f21462000522578063a0aead4d1462000501578063a89573e314620003f2578063bef2be0f14620002ab578063da1f12ab1462000288578063dcfbb9a014620001085763def49b8614620000a657600080fd5b34620001045760203660031901126200010457356001600160a01b0381169290839003620000ff578181620000fb94620000e7935260016020522062000bfe565b905191829160208352602083019062000af1565b0390f35b600080fd5b8280fd5b50903462000104576080366003190112620001045767ffffffffffffffff908235828111620002705762000140903690850162000a7f565b6200014a62000caf565b606435918483116200028457366023840112156200028457828601359485116200028457366024868501011162000284576020620001918551928381519384920162000acc565b81018781528190036020019020546001600160a01b0390811694851562000274579087939291863b156200027057849281608492602489519788968795637482610b60e11b875216809d860152604435828601526060604486015282606486015201848401378181018301859052601f01601f1916810103018183885af1801562000266576200024a575b505060207fd46d826f6675def54a86ec87fa3a8cba5abbba4e4fd67b4733af6decbab407829151858152a380f35b620002559062000a14565b620002625783386200021c565b8380fd5b83513d84823e3d90fd5b8480fd5b845163470cbf4760e01b81528790fd5b8680fd5b505034620002a75781600319360112620002a757602090516127118152f35b5080fd5b50903462000104576060366003190112620001045767ffffffffffffffff82358181116200027057620002e2903690850162000a7f565b91620002ed62000caf565b604435928316809303620003ee576020620003118351958681519384920162000acc565b8401868152849003602001909320546001600160a01b0390811693908415620003de57843b15620002845782519163daa0853960e01b8352168095820152826024820152858160448183885af18015620003d45762000399575b507fd46d826f6675def54a86ec87fa3a8cba5abbba4e4fd67b4733af6decbab407829160209151908152a380f35b9160209195620003ca7fd46d826f6675def54a86ec87fa3a8cba5abbba4e4fd67b4733af6decbab407829462000a14565b959150916200036b565b82513d88823e3d90fd5b825163470cbf4760e01b81528690fd5b8580fd5b50829034620002a75781600319360112620002a7576002549067ffffffffffffffff8211620004ee5750602091835162000432848460051b018262000a3f565b8281526002825283810192827f405787fa12a823e0f2b7631cc41b3ba8828b3321ca811111fa75cd3aa3bb5ace855b838310620004c757505050508451938085019181865251809252858501958260051b8601019392955b828710620004985785850386f35b909192938280620004b6600193603f198a8203018652885162000af1565b96019201960195929190926200048a565b6001888192620004db859b98999b62000bfe565b8152019201920191909694939662000461565b634e487b7160e01b835260419052602482fd5b505034620002a75781600319360112620002a7576020906002549051908152f35b50919034620002a75760a0366003190112620002a75767ffffffffffffffff92803584811162000262576200055b903690830162000a7f565b602435858111620002705762000575903690840162000a7f565b9460443591606435936084358381116200075f5762000598903690830162000a7f565b9786519083519460209a8b860196620005b381868a62000acc565b84018b81528490038c01909320546001600160a01b03939084166200074f578715801562000746575b6200073657895192611027808501938411858510176200072357918a8a869593620006109562000e3788398a309562000b18565b039089f08015620007195716968651898185516200063081838a62000acc565b810184815203019020886bffffffffffffffffffffffff60a01b82541617905587815260018952620006658388832062000d13565b6002546801000000000000000081101562000706578060016200068c920160025562000b73565b929092620006f457505092620006de7f1b860113298d96e02865030558694f04dacf8494993a2ff559e57394cced4b5c9383620006cd89958b999862000d13565b845192839283925192839162000acc565b810103902093825191825288820152a351908152f35b634e487b7160e01b8252819052602490fd5b506041602492634e487b7160e01b835252fd5b87513d8a823e3d90fd5b634e487b7160e01b8d526041875260248dfd5b8951630e52390960e41b81528590fd5b508815620005dc565b895163dc0d0aab60e01b81528590fd5b8780fd5b5034620001045760203660031901126200010457803567ffffffffffffffff81116200026257602093916200079b9136910162000a7f565b83620007b08451928381519384920162000acc565b810191825290819003830190205490516001600160a01b039091168152f35b5091346200081457602036600319011262000814578235600254811015620002a757620007fc9062000b73565b939093620006f457620000fb83620000e78662000bfe565b80fd5b503462000104576020366003190112620001045767ffffffffffffffff813581811162000270576200084d903690840162000a7f565b6020620008638551928381519384920162000acc565b81018581528190036020019020546001600160a01b0390811680156200097f578590855194858092635e3109e760e01b82525afa9182156200097557859386958791889389958a97620008c7575b505050620000fb95969750519687968762000b18565b955096509650935050503d8086863e620008e2818662000a3f565b84019360c081860312620003ee5780518481116200028457856200090891830162000cc6565b9360208201518181116200075f57866200092491840162000cc6565b9484830151966060840151926080850151908111620009715760a0916200094d91860162000cc6565b93015193841684036200075f579496508695929391929091620000fb3880620008b1565b8980fd5b84513d87823e3d90fd5b845163470cbf4760e01b81528490fd5b509134620008145760203660031901126200081457823567ffffffffffffffff8111620002a757620009c5903690850162000a7f565b6020620009db8451928381519384920162000acc565b8101918252908190036020019020546001600160a01b031690811562000a05576020925051908152f35b5163470cbf4760e01b81529050fd5b67ffffffffffffffff811162000a2957604052565b634e487b7160e01b600052604160045260246000fd5b90601f8019910116810190811067ffffffffffffffff82111762000a2957604052565b67ffffffffffffffff811162000a2957601f01601f191660200190565b81601f82011215620000ff5780359062000a998262000a62565b9262000aa9604051948562000a3f565b82845260208383010111620000ff57816000926020809301838601378301015290565b60005b83811062000ae05750506000910152565b818101518382015260200162000acf565b9060209162000b0c8151809281855285808601910162000acc565b601f01601f1916010190565b94909362000b4d62000b66949362000b3e60a0979a999a60c08a5260c08a019062000af1565b9088820360208a015262000af1565b9260408701526060860152848203608086015262000af1565b93600180831b0316910152565b60025481101562000bab5760026000527f405787fa12a823e0f2b7631cc41b3ba8828b3321ca811111fa75cd3aa3bb5ace0190600090565b634e487b7160e01b600052603260045260246000fd5b90600182811c9216801562000bf3575b602083101462000bdd57565b634e487b7160e01b600052602260045260246000fd5b91607f169162000bd1565b9060405191826000825462000c138162000bc1565b9081845260209460019160018116908160001462000c8b575060011462000c48575b50505062000c469250038362000a3f565b565b600090815285812095935091905b81831062000c7257505062000c46935082010138808062000c35565b8554888401850152948501948794509183019162000c56565b9250505062000c4694925060ff191682840152151560051b82010138808062000c35565b602435906001600160a01b0382168203620000ff57565b81601f82011215620000ff57805162000cdf8162000a62565b9262000cef604051948562000a3f565b81845260208284010111620000ff5762000d10916020808501910162000acc565b90565b919091825167ffffffffffffffff811162000a295762000d34825462000bc1565b601f811162000de7575b50602080601f831160011462000d7e57508192939460009262000d72575b50508160011b916000199060031b1c1916179055565b01519050388062000d5c565b90601f19831695846000526020600020926000905b88821062000dce5750508360019596971062000db4575b505050811b019055565b015160001960f88460031b161c1916905538808062000daa565b8060018596829496860151815501950193019062000d93565b6000836000526020600020601f840160051c8101926020851062000e2b575b601f0160051c01915b82811062000e1f57505062000d3e565b81815560010162000e0f565b909250829062000e0656fe608060405234620005ef5762001027803803806200001d816200062a565b928339810160c082820312620005ef5781516001600160401b039190828111620005ef57816200004f91850162000650565b92602080820151848111620005ef57836200006c91840162000650565b936040830151956060840151946080850151838111620005ef5760a0916200009691870162000650565b9401516001600160a01b0381169690879003620005ef57606094620000ba620005f4565b600096818880935282888201528260408201520152620000d9620005f4565b9660607350157cffd6bbfa2dece204a89ec419c23ef5755d9889815273cd3ab3bd6bcc0c0bf3e27912a92043e817b1cf69808983015273a02cda4ca3a71d7c46997716f4283aa851c2881291826040820152731364cbbf2cdf5032c47d8226a6f6fbd2afcdacac938491015260018060a01b03199a7f9e7b61f58c47dc699ac88507c4f5bb9f121c03808c5676a8078fe583e4649700908c8254161790557f9e7b61f58c47dc699ac88507c4f5bb9f121c03808c5676a8078fe583e4649701908b8254161790557f9e7b61f58c47dc699ac88507c4f5bb9f121c03808c5676a8078fe583e4649702908a8254161790557f9e7b61f58c47dc699ac88507c4f5bb9f121c03808c5676a8078fe583e46497039089825416179055835192858411620005db578754936001958686811c96168015620005d0575b89871014620004da578190601f968781116200057d575b50899087831160011462000519578b926200050d575b5050600019600383901b1c191690861b1788555b805190868211620004f95785548681811c91168015620004ee575b89821014620004da5790818684931162000487575b50889086831160011462000423578a9262000417575b5050600019600383901b1c191690851b1784555b896002556003558051938411620004035760049586548481811c91168015620003f8575b87821014620003e5578381116200039d575b5085928511600114620003365793945084929190836200032a575b50501b916000199060031b1c19161790555b60055416176005556006556040516109649081620006c38239f35b015192503880620002fd565b86815285812093958591601f198316915b8883831062000382575050501062000368575b505050811b0190556200030f565b015160001960f88460031b161c191690553880806200035a565b85870151885590960195948501948793509081019062000347565b8782528682208480880160051c820192898910620003db575b0160051c019085905b828110620003cf575050620002e2565b838155018590620003bf565b92508192620003b6565b634e487b7160e01b825260228852602482fd5b90607f1690620002d0565b634e487b7160e01b86526041600452602486fd5b01519050388062000298565b878b52898b208894509190601f1984168c5b8c82821062000470575050841162000456575b505050811b018455620002ac565b015160001960f88460031b161c1916905538808062000448565b8385015186558b9790950194938401930162000435565b909150868a52888a208680850160051c8201928b8610620004d0575b918991869594930160051c01915b828110620004c157505062000282565b8c8155859450899101620004b1565b92508192620004a3565b634e487b7160e01b8a52602260045260248afd5b90607f16906200026d565b634e487b7160e01b89526041600452602489fd5b0151905038806200023e565b8b80528a8c208994509190601f1984168d5b8d8282106200056657505084116200054c575b505050811b01885562000252565b015160001960f88460031b161c191690553880806200053e565b8385015186558c979095019493840193016200052b565b9091508a8052898b208780850160051c8201928c8610620005c6575b918a91869594930160051c01915b828110620005b757505062000228565b8d81558594508a9101620005a7565b9250819262000599565b95607f169562000211565b634e487b7160e01b88526041600452602488fd5b600080fd5b60405190608082016001600160401b038111838210176200061457604052565b634e487b7160e01b600052604160045260246000fd5b6040519190601f01601f191682016001600160401b038111838210176200061457604052565b919080601f84011215620005ef5782516001600160401b038111620006145760209062000686601f8201601f191683016200062a565b92818452828287010111620005ef5760005b818110620006ae57508260009394955001015290565b85810183015184820184015282016200069856fe608060409080825260048036101561001657600080fd5b600091823560e01c90816315137bd9146105625750806318160ddd146105435780633fe3347a146105255780635e3109e7146104a5578063817bc0cb14610449578063938626c21461048757806399530b0614610468578063a173f79e14610449578063c3acb4d114610420578063c9230c5d146103eb578063da1f12ab146103ce578063daa08539146102f95763e904c216146100b357600080fd5b346102f55760603660031901126102f5576100cc61088c565b906044359067ffffffffffffffff8083116102f157366023840112156102f157828201359081116102f15736602482850101116102f1576005546001600160a01b039390841633036102e157918596916101a287959460209687848195602489519561014185601f19601f86011601886105d4565b828752018386013783010152857f9e7b61f58c47dc699ac88507c4f5bb9f121c03808c5676a8078fe583e464970154169085519a8b8094819363196d0b9b60e01b83526024358984015233602484015260806044840152608483019061084c565b6005606483015203925af19687156102a05786976102ae575b50827f9e7b61f58c47dc699ac88507c4f5bb9f121c03808c5676a8078fe583e46497005416803b156102aa578251630f8e573b60e21b81529182018881523360208201528791839182908490829060400103925af180156102a057610269575b5061025e7f6332ddaa8a69b5eb2524ec7ca317b7c2b01ecf678d584031415f81270977b8fc94959661024d30826108a7565b61025787826108a7565b33906108a7565b51938585521692a280f35b7f6332ddaa8a69b5eb2524ec7ca317b7c2b01ecf678d584031415f81270977b8fc949561029861025e926105aa565b95945061021b565b82513d88823e3d90fd5b8680fd5b9096508381813d83116102da575b6102c681836105d4565b810103126102d6575195386101bb565b8580fd5b503d6102bc565b8651631b1319e560e01b81528390fd5b8480fd5b5080fd5b508290346103ca57816003193601126103ca5761031461088c565b6024359267ffffffffffffffff84168094036102f1576005546001600160a01b039390841633036103bc5784156103ae57600654908186116103a05785820391821161038d57506006555192835216907f6332ddaa8a69b5eb2524ec7ca317b7c2b01ecf678d584031415f81270977b8fc90602090a280f35b634e487b7160e01b875260119052602486fd5b8251633999656760e01b8152fd5b905163162908e360e11b8152fd5b9051631b1319e560e01b8152fd5b8280fd5b8284346102f557816003193601126102f557602090516127118152f35b8284346102f557816003193601126102f55761041c906104096106e3565b905191829160208352602083019061084c565b0390f35b8284346102f557816003193601126102f55760055490516001600160a01b039091168152602090f35b8284346102f557816003193601126102f5576020906006549051908152f35b8284346102f557816003193601126102f5576020906003549051908152f35b8284346102f557816003193601126102f55761041c90610409610795565b8284346102f557816003193601126102f5576104f79061051b60025491600354926104ce6106e3565b936104d7610795565b916105056104e36105f6565b93855198899860c08a5260c08a019061084c565b9088820360208a015261084c565b938601526060850152838203608085015261084c565b3060a08301520390f35b8284346102f557816003193601126102f55761041c906104096105f6565b8284346102f557816003193601126102f5576020906002549051908152f35b905082346105a75760203660031901126105a75760035483358181029291811591840414171561059457602083838152f35b634e487b7160e01b815260118452602490fd5b80fd5b67ffffffffffffffff81116105be57604052565b634e487b7160e01b600052604160045260246000fd5b90601f8019910116810190811067ffffffffffffffff8211176105be57604052565b6040519060006004549060018260011c90600184169384156106d9575b60209485841081146106c557838852879493929181156106a55750600114610646575b5050610644925003836105d4565b565b9093915060046000527f8a35acfbc15ff81a39ae7d344fd709f28e8600b4aa8c65c6b64bfe7fe36bd19b936000915b81831061068d57505061064493508201013880610636565b85548884018501529485019487945091830191610675565b91505061064494925060ff191682840152151560051b8201013880610636565b634e487b7160e01b85526022600452602485fd5b91607f1691610613565b60405190600080549060018260011c906001841693841561078b575b60209485841081146106c557838852879493929181156106a5575060011461072f575050610644925003836105d4565b60008080527f290decd9548b62a8d60345a988386fc84ba6bc95484008f6362f93160ef3e56395935091905b81831061077357505061064493508201013880610636565b8554888401850152948501948794509183019161075b565b91607f16916106ff565b604051906000600190600154918260011c9060018416938415610842575b60209485841081146106c557838852879493929181156106a557506001146107e3575050610644925003836105d4565b9093915060016000527fb10e2d527612073b26eecdfd717e6a320cf44b4afac2b0732d9fcbe2b7fa0cf6936000915b81831061082a57505061064493508201013880610636565b85548884018501529485019487945091830191610812565b91607f16916107b3565b919082519283825260005b848110610878575050826000602080949584010152601f8019910116010190565b602081830181015184830182015201610857565b600435906001600160a01b03821682036108a257565b600080fd5b7f9e7b61f58c47dc699ac88507c4f5bb9f121c03808c5676a8078fe583e4649700546001600160a01b031691823b156108a257604051635ca4b5b160e11b815260048101929092526001600160a01b03166024820152906000908290604490829084905af18015610922576109195750565b610644906105aa565b6040513d6000823e3d90fdfea26469706673582212200d48f2e7d4c04af62fa170f53875edc9891a73cbdfb0c0035d5475282ab83b9764736f6c63430008180033a2646970667358221220171e0b09ca29bebad9279f55757e34934b4721593be54e25b71f930bac5ba70564736f6c63430008180033",
  "linkReferences": {},
  "deployedLinkReferences": {}
}